{
  "_format": "hh-sol-artifact-1",
  "contractName": "BankApp",
  "sourceName": "src/Contracts/BankApp.sol",
  "abi": [
    {
      "inputs": [],
      "name": "accountBalance",
      "outputs": [
        {
          "internalType": "uint256",
          "name": "",
          "type": "uint256"
        }
      ],
      "stateMutability": "view",
      "type": "function"
    },
    {
      "inputs": [],
      "name": "accountExists",
      "outputs": [
        {
          "internalType": "bool",
          "name": "",
          "type": "bool"
        }
      ],
      "stateMutability": "view",
      "type": "function"
    },
    {
      "inputs": [],
      "name": "createAcc",
      "outputs": [
        {
          "internalType": "bool",
          "name": "",
          "type": "bool"
        }
      ],
      "stateMutability": "nonpayable",
      "type": "function"
    },
    {
      "inputs": [],
      "name": "deposit",
      "outputs": [],
      "stateMutability": "payable",
      "type": "function"
    },
    {
      "inputs": [
        {
          "internalType": "uint256",
          "name": "withdrawAmount",
          "type": "uint256"
        }
      ],
      "name": "withdraw",
      "outputs": [],
      "stateMutability": "payable",
      "type": "function"
    }
  ],
  "bytecode": "0x608060405234801561001057600080fd5b50610657806100206000396000f3fe60806040526004361061004a5760003560e01c80632e1a7d4d1461004f578063b0a1c1c41461006b578063ce4b2ad314610096578063d0e30db0146100c1578063d33921da146100cb575b600080fd5b61006960048036038101906100649190610480565b6100f6565b005b34801561007757600080fd5b5061008061022b565b60405161008d91906104bc565b60405180910390f35b3480156100a257600080fd5b506100ab610271565b6040516100b891906104f2565b60405180910390f35b6100c96102c5565b005b3480156100d757600080fd5b506100e0610353565b6040516100ed91906104f2565b60405180910390f35b60011515600160003373ffffffffffffffffffffffffffffffffffffffff1673ffffffffffffffffffffffffffffffffffffffff16815260200190815260200160002060009054906101000a900460ff16151514801561019357506000803373ffffffffffffffffffffffffffffffffffffffff1673ffffffffffffffffffffffffffffffffffffffff1681526020019081526020016000205481105b61019c57600080fd5b806000803373ffffffffffffffffffffffffffffffffffffffff1673ffffffffffffffffffffffffffffffffffffffff168152602001908152602001600020546101e6919061053c565b6000803373ffffffffffffffffffffffffffffffffffffffff1673ffffffffffffffffffffffffffffffffffffffff1681526020019081526020016000208190555050565b60008060003373ffffffffffffffffffffffffffffffffffffffff1673ffffffffffffffffffffffffffffffffffffffff16815260200190815260200160002054905090565b6000600160003373ffffffffffffffffffffffffffffffffffffffff1673ffffffffffffffffffffffffffffffffffffffff16815260200190815260200160002060009054906101000a900460ff16905090565b346000803373ffffffffffffffffffffffffffffffffffffffff1673ffffffffffffffffffffffffffffffffffffffff1681526020019081526020016000205461030f9190610570565b6000803373ffffffffffffffffffffffffffffffffffffffff1673ffffffffffffffffffffffffffffffffffffffff16815260200190815260200160002081905550565b6000801515600160003373ffffffffffffffffffffffffffffffffffffffff1673ffffffffffffffffffffffffffffffffffffffff16815260200190815260200160002060009054906101000a900460ff161515146103e7576040517f08c379a00000000000000000000000000000000000000000000000000000000081526004016103de90610601565b60405180910390fd5b60018060003373ffffffffffffffffffffffffffffffffffffffff1673ffffffffffffffffffffffffffffffffffffffff16815260200190815260200160002060006101000a81548160ff0219169083151502179055506001905090565b600080fd5b6000819050919050565b61045d8161044a565b811461046857600080fd5b50565b60008135905061047a81610454565b92915050565b60006020828403121561049657610495610445565b5b60006104a48482850161046b565b91505092915050565b6104b68161044a565b82525050565b60006020820190506104d160008301846104ad565b92915050565b60008115159050919050565b6104ec816104d7565b82525050565b600060208201905061050760008301846104e3565b92915050565b7f4e487b7100000000000000000000000000000000000000000000000000000000600052601160045260246000fd5b60006105478261044a565b91506105528361044a565b925082820390508181111561056a5761056961050d565b5b92915050565b600061057b8261044a565b91506105868361044a565b925082820190508082111561059e5761059d61050d565b5b92915050565b600082825260208201905092915050565b7f5573657220616c72656164792045786973747300000000000000000000000000600082015250565b60006105eb6013836105a4565b91506105f6826105b5565b602082019050919050565b6000602082019050818103600083015261061a816105de565b905091905056fea26469706673582212206f001a820f4ff4b4ee1d90b0e6112707b4c899670483d92aa149ce7aafbc277a64736f6c63430008120033",
  "linkReferences": {},
  "deployedLinkReferences": {}
}